{
  "contractName": "Greete",
  "abi": [
    {
      "constant": true,
      "inputs": [],
      "name": "sayHello",
      "outputs": [
        {
          "name": "name",
          "type": "string"
        }
      ],
      "payable": false,
      "stateMutability": "view",
      "type": "function"
    },
    {
      "constant": false,
      "inputs": [
        {
          "name": "a",
          "type": "uint256"
        }
      ],
      "name": "greeting",
      "outputs": [
        {
          "name": "b",
          "type": "uint256"
        }
      ],
      "payable": false,
      "stateMutability": "nonpayable",
      "type": "function"
    }
  ],
  "bytecode": "0x6060604052341561000f57600080fd5b6101a68061001e6000396000f30060606040526004361061004c576000357c0100000000000000000000000000000000000000000000000000000000900463ffffffff16806372a239eb14610051578063ef5fb05b14610088575b600080fd5b341561005c57600080fd5b6100726004808035906020019091905050610116565b6040518082815260200191505060405180910390f35b341561009357600080fd5b61009b610123565b6040518080602001828103825283818151815260200191508051906020019080838360005b838110156100db5780820151818401526020810190506100c0565b50505050905090810190601f1680156101085780820380516001836020036101000a031916815260200191505b509250505060405180910390f35b6000600882029050919050565b61012b610166565b6040805190810160405280600c81526020017fe8bfaae4b8bde783ade5b7b40000000000000000000000000000000000000000815250905090565b6020604051908101604052806000815250905600a165627a7a7230582018a750bc4f8272ac2a1bfb6471656ac977b15ab056a45dcb33efc2f2af27d9280029",
  "source": "pragma solidity ^0.4.16;\n\n\ncontract Greete {\n    \n    function sayHello() public constant returns (string name) {\n        return (\"迪丽热巴\");\n    }\n\n    function greeting(uint a) public returns(uint b) {\n        return a*8;\n    }\n}",
  "sourcePath": "/Users/kongdejian/Desktop/myproject/contracts/Greete.sol",
  "compiler": {
    "name": "solc",
    "version": "0.4.19+commit.c4cbbb05.Emscripten.clang"
  },
  "schemaVersion": "2.0.0",
  "updatedAt": "2018-04-14T10:58:55.558Z"
}